:020000040800F2
:1000000000900020B9D80008D9D60008E1D6000831
:1000100000000000000000000000000000000000E0
:10002000000000000000000000000000E9D6000809
:100030000000000000000000F3D60008FDD6000814
:1000400009D9000809D9000809D9000809D9000808
:1000500009D9000809D9000809D9000809D90008F8
:1000600009D9000831D7000809D9000809D90008C2
:1000700009D9000809D9000849D7000861D7000844
:1000800079D7000809D9000809D9000809D900085A
:1000900009D9000809D9000809D9000891D7000832
:1000A00009D90008C1D7000809D90008D9D7000824
:0C00B000F9D7000811D8000809D9000891
:1000BC0010B5064C2378002B07D1054B002B02D032
:1000CC00044800E000BF0123237010BD040500208C
:1000DC0000000000C08E0108044B10B5002B03D0AB
:1000EC000349044800E000BF10BDC04600000000FA
:1000FC0008050020C08E01080023C25C0133002AD1
:10010C00FBD1581E7047000003B4714649084000EB
:10011C004900095E49008E4403BC70470022430825
:10012C008B4274D303098B425FD3030A8B4244D3B3
:10013C00030B8B4228D3030C8B420DD3FF220902F5
:10014C0012BA030C8B4202D31212090265D0030BB4
:10015C008B4219D300E0090AC30B8B4201D3CB03AA
:10016C00C01A5241830B8B4201D38B03C01A5241EC
:10017C00430B8B4201D34B03C01A5241030B8B42EE
:10018C0001D30B03C01A5241C30A8B4201D3CB02D9
:10019C00C01A5241830A8B4201D38B02C01A5241BE
:1001AC00430A8B4201D34B02C01A5241030A8B42C1
:1001BC0001D30B02C01A5241CDD2C3098B4201D3D9
:1001CC00CB01C01A524183098B4201D38B01C01A57
:1001DC00524143098B4201D34B01C01A52410309CE
:1001EC008B4201D30B01C01A5241C3088B4201D37D
:1001FC00CB00C01A524183088B4201D38B00C01A2A
:10020C00524143088B4201D34B00C01A5241411A50
:10021C0000D20146524110467047FFE701B500205D
:10022C0000F0F0F802BDC0460029F7D076E7704721
:10023C0003460B437FD4002243088B4274D303093B
:10024C008B425FD3030A8B4244D3030B8B4228D3DC
:10025C00030C8B420DD3FF22090212BA030C8B4202
:10026C0002D31212090265D0030B8B4219D300E0A2
:10027C00090AC30B8B4201D3CB03C01A5241830B27
:10028C008B4201D38B03C01A5241430B8B4201D3D7
:10029C004B03C01A5241030B8B4201D30B03C01A00
:1002AC005241C30A8B4201D3CB02C01A5241830A7A
:1002BC008B4201D38B02C01A5241430A8B4201D3A9
:1002CC004B02C01A5241030A8B4201D30B02C01AD3
:1002DC005241CDD2C3098B4201D3CB01C01A52413A
:1002EC0083098B4201D38B01C01A524143098B42C3
:1002FC0001D34B01C01A524103098B4201D30B01AC
:10030C00C01A5241C3088B4201D3CB00C01A5241D0
:10031C0083088B4201D38B00C01A524143088B4295
:10032C0001D34B00C01A5241411A00D2014652412E
:10033C00104670475DE0CA0F00D04942031000D34D
:10034C004042534000229C4603098B422DD3030AA2
:10035C008B4212D3FC22890112BA030A8B420CD3B2
:10036C00890192118B4208D3890192118B4204D3DB
:10037C0089013AD0921100E08909C3098B4201D35B
:10038C00CB01C01A524183098B4201D38B01C01A95
:10039C00524143098B4201D34B01C01A524103090C
:1003AC008B4201D30B01C01A5241C3088B4201D3BB
:1003BC00CB00C01A524183088B4201D38B00C01A68
:1003CC005241D9D243088B4201D34B00C01A52413F
:1003DC00411A00D20146634652415B10104601D3CC
:1003EC004042002B00D54942704763465B1000D356
:1003FC00404201B5002000F005F802BD0029F8D0FC
:10040C0016E770477047C0468446100062468C461B
:10041C001900634600E0C0461FB501F0C5FF002877
:10042C0001D40021C8421FBD10B501F005FF4042A8
:10043C00013010BD10B501F0B7FF002801DB002022
:10044C0010BD012010BDC04610B501F0ADFF002855
:10045C0001DD002010BD012010BDC04610B501F01B
:10046C002FFF002801DC002010BD012010BDC0466C
:10047C0010B501F025FF002801DA002010BD012085
:10048C0010BDC046844608006146FFE71FB500F06A
:10049C0077FC002801D40021C8421FBD10B500F024
:1004AC00F7FB4042013010BD10B500F069FC00288C
:1004BC0001DB002010BD012010BDC04610B500F0BE
:1004CC005FFC002801DD002010BD012010BDC046DE
:1004DC0010B500F005FC002801DC002010BD012047
:1004EC0010BDC04610B500F0FBFB002801DA00205F
:1004FC0010BD012010BDC046002B11D1002A0FD118
:10050C00002900D1002802D00021C943080007B4FB
:10051C00024802A14018029003BDC046E9FEFFFF4D
:10052C0003B4684601B5029800F03CF8019B9E4666
:10053C0002B00CBC7047C0469E2110B5C905041C06
:10054C00FFF7D0FF002803D1201C00F049FF10BD9D
:10055C009E21201CC90500F09FFD00F041FF802367
:10056C001B069C466044F2E770B500220C4B04005D
:10057C000D00FFF77DFF002804D12000290002F0B8
:10058C00E9FD70BD064B00222000290002F046FA5E
:10059C0002F0E0FD80231B069C466044F1E7C04658
:1005AC000000E041F0B557464E464546DE46E0B504
:1005BC0004000D009246994683B08B4230D82DD062
:1005CC004946504602F03EFF29000600200002F08A
:1005DC0039FF331A9846203B34D49B4653465A462F
:1005EC00934042461F00534693401E00AF423BD8F7
:1005FC00AF4200D179E05B46A41BBD41002B00DA71
:10060C0076E0002200230092019301235A46934086
:10061C000193012342469340009329E08242CFD9B3
:10062C0000220023009201930C9B002B01D01C6034
:10063C005D600098019903B0F0BCBB46B246A94678
:10064C00A046F0BD42469B4620239B1A5246DA40F8
:10065C00414613004A468A40170042461F43534600
:10066C0093401E00AF42C3D9002200230092019395
:10067C004346002BD8D0FB0772081A4346467B082A
:10068C000EE0AB4201D1A2420CD8A41A9D4101202C
:10069C0024196D410021013E24184D41002E06D035
:1006AC00AB42EED9013E24196D41002EF8D10098D1
:1006BC0001995B4600196941002B24DB2B005A463B
:1006CC004446D3402A00E2401C005B461500002B38
:1006DC002ADB26009E40330026004746BE403200EF
:1006EC00801A9941009001919EE7A342BCD882E701
:1006FC004246202300219B1A0022009101920122E4
:10070C00DA40019285E7424620239B1A2A0046468E
:10071C009A402300F340444613432A00E2401C0055
:10072C005B461500002BD4DA42462F00202326000E
:10073C0097409B1ADE403B003343CDE7F8B5CE46DD
:10074C00474643025A0A4E024500C40F48009146E0
:10075C002D0E720A000E944680B59B09C90FB6097E
:10076C002A1A8C4221D0002A0DDD00282DD1002E12
:10077C0000D18DE0511E012A00D11DE1FF2A00D1CC
:10078C00ABE00A0027E0002A4DD0421B002D00D020
:10079C00CCE0002B00D179E0541E012A00D128E1D5
:1007AC00FF2A00D197E02200C5E0002A00DC96E089
:1007BC0000284FD0FF2D00D18FE08021C9040E43BB
:1007CC001B2A51DD2A00013318E0FF2D00D184E0F3
:1007DC008021C9040E4301211B2A08DC3100202092
:1007EC00D140821A96403200501E824111435B1A4E
:1007FC005A0159D407212A00194049D00F21194018
:10080C00042900D00433590142D5501CFE2A3AD099
:10081C009B01C0B25B0AC0051843E4072043C0BC6F
:10082C00B946B046F8BDFE2080466F1C38004746DE
:10083C00074200D08EE0002D00D0B4E0002B00D198
:10084C00DBE0002E6CD0981B450100D4F7E00C00C7
:10085C00F31A3DE0002E1BD0511E012A00D182E07C
:10086C00FF2A3AD00A00ABE731002020D140821A8F
:10087C0096403200501E82410A439B185A01B9D54A
:10088C006A1CFE2D75D1FF200023C4E70C00330039
:10089C00DB08FF2A46D1002BF5D08022D20313436C
:1008AC005B02FF205B0AB6E79F01BF09380002F02C
:1008BC00ABFD05388740854224DC3B002021421BE0
:1008CC000132D3408A1A97407A1E974100223B434B
:1008DC00590793D197E70C003300DB08DBE7002ABC
:1008EC0014D0421B002D4BD1002BD0D0511E012A0D
:1008FC0000D19EE0FF2AEFD00A001B2A5FDD020028
:10090C00731C7BE7504B2A1A3B40E1E7FE216A1C23
:10091C0011423BD1002D5DD1002B7FD0002E7FD119
:10092C000022DB085B025B0AD0B274E7FF28D2D04E
:10093C008024E404234301241B2A07DC1C0020250B
:10094C00D440AA1A93405A1E93411C43331B0500F2
:10095C000C004DE79F1B7A0122D4002FA6D1002456
:10096C000020002357E79B1901250132590100D4BF
:10097C0040E70121354819405B0803400B43A7E7CA
:10098C00FF28A9D08021C9040B43B6E7FF2A00D168
:10099C0079E79B195B08590700D02FE7DB08C1E703
:1009AC000C00F71A82E7002B2CD1002E93D1802358
:1009BC000024FF20DB032EE701259B1B18E7190001
:1009CC002025D140AA1A93405A1E93410B4305008F
:1009DC009B1953E7002B00D17EE7002E00D17CE75A
:1009EC008022D203914502D3944500D23300DB0818
:1009FC0053E70C00F31A0135FAE6002EAFD00C00C9
:100A0C0033008DE7002E00D167E78022D203914599
:100A1C00EDD39445EBD20C003300E8E733007FE7CD
:100A2C009B1900225901B9D5074A1340DB08012252
:100A3C0078E79B190132013559019AD4DAE6031E85
:100A4C008DD0DB086EE7C046FFFFFFFBFFFFFF7D8D
:100A5C00F0B54F464646D6464402C0B547000E1C7C
:100A6C00640A3F0EC50F002F3CD0FF2F42D000234D
:100A7C00802299469A46E400D20414437F3F7302C5
:100A8C005B0A984673001B0EF60F002B1BD0FF2B36
:100A9C0013D042468021D200C9041143884600205D
:100AAC007F3B2900FF1A4B467140C9B20F2B00D96E
:100ABC00B5E0744A9B00D3589F464346002B3FD168
:100ACC00FF3F023303E04346002B2DD101232900C5
:100ADC004A467140C9B21A430E2A38D86A48920065
:100AEC0082589746002C13D104239946033B0027C8
:100AFC009A46C4E7002C05D108239946063BFF27EC
:100B0C009A46BCE70C239946093BFF279A46B6E761
:100B1C00200002F079FC7627431F9C4000237F4283
:100B2C0099469A463F1AAAE7404602F06DFC4246A7
:100B3C00431F9A4076235B421B1A90460020B0E775
:100B4C0003234A461A4391460320FC33A9E70D00C0
:100B5C00FF200022C005ED0710432843E0BCBA4635
:100B6C00B146A846F0BD0D0000200022F2E7534626
:100B7C00022BEDD0032B33D0A046012B05D1002046
:100B8C000022E7E7350003287AD03B007F33002BA7
:100B9C002DDD4246520707D00F2241460A40042A57
:100BAC0002D004229446E0444246120105D5424646
:100BBC00364B1A403B0090468033FE2BC8DC424635
:100BCC009201520AD8B2C5E780220025FF20D20339
:100BDC00C0E78022D203144202D04346134249D0CC
:100BEC008022D20322435202FF20520AB2E7012292
:100BFC00D31A1B2BC3DC4246DA4043469E37BB401C
:100C0C00591E8B411A43530704D00F231340042B56
:100C1C0000D00432530129D5012000229AE7424624
:100C2C0063015501AB4215D21B200022013F012666
:100C3C001C0052005B00002C01DB9D4201D85B1BA9
:100C4C00324301380028F3D1581E83411343984690
:100C5C000D009AE71A2001225B1BE8E7023B5A427F
:100C6C0053415B4235000022D8B273E79201002059
:100C7C00520A6FE71A4352023500FF20520A69E705
:100C8C004446ADE72094010860940108FFFFFFF78C
:100C9C0070B542004E024C0045026D0A120EC30F95
:100CAC00760A240EC90FFF2A10D0FF2C0CD001207D
:100CBC00A2420AD1B54208D18B420FD0002A04D1EE
:100CCC002800431E984100E0012070BD0120FF2C3C
:100CDC00FBD13543F9D14B401800F6E70020F4E77F
:100CEC0030B5420044024D02C30F4800640A120E94
:100CFC006D0A000EC90FFF2A19D0FF280BD0002A4D
:100D0C001ED100280BD1002D27D0002C34D1002966
:100D1C002FD0080030BD002D28D1002A01D1002C85
:100D2C00F5D08B4207D1002B23D01800F2E7002C12
:100D3C001CD1FF2814D0581E022318400138E9E7B3
:100D4C000028F8D08B42F6D18242F4DCEBDBAC42CB
:100D5C00F1D80020AC42DDD2E5E7002CDAD0EAE78E
:100D6C00002D03D18B42E6D10020D3E70220404274
:100D7C00D0E701204042CDE78B42E8D0DBE7C0460C
:100D8C0030B5420044024D02C30F4800640A120EF3
:100D9C006D0A000EC90FFF2A1AD0FF280ED0002AA8
:100DAC001ED100280ED1002D2AD0002C0CD08B4245
:100DBC001DD0581E02231840013810E0002D0DD113
:100DCC00002A20D1002C1ED1002923D0080006E0D7
:100DDC00002C03D1FF28ECD1002D17D0022030BD00
:100DEC000028E6D08B42E4D18242E2DC04DBAC4248
:100DFC00DFD80020AC42F2D2002B0BD01800EEE76B
:100E0C00002CECD0D5E78B42D3D1F5E700208B42F8
:100E1C00E5D0CEE701204042E1E7C046F0B54F46B1
:100E2C004646D64643025B0A4500C0B599460F1CA0
:100E3C002D0EC60F002D00D188E0FF2D00D18DE0C6
:100E4C008022DB00D2041A430023914698469A462E
:100E5C007F3D7C027B00640A1B0EFF0F002B68D0C9
:100E6C00FF2B21D08022E400D204144342467F3B66
:100E7C005B1900215D1C0A2A2EDC7E404246022AA8
:100E8C0023DC013A012A00D9BDE002296ED00129E8
:100E9C002CD100200022C005F60710433043E0BCE3
:100EAC00BA46B146A846F0BD2B00FF33002C65D0E6
:100EBC000322414611433200013588467A40FF3502
:100ECC000A2900DDD8E016000321404601228240A9
:100EDC00A620C000024220D05346022B46D0032B42
:100EEC0000D1BBE051464C460129D2D02B007F33B8
:100EFC00002B70DD620704D00F222240042A00D0A0
:100F0C000434220103D5634B1C402B008033FE2B91
:100F1C002CDCA201520AD8B2BDE79020800002421C
:100F2C0027D1B938FF3810426DD03E00A1468A4611
:100F3C00D2E7002C41D1012342461A4390462B00A4
:100F4C00424601215D1C0A2A97DDC5E7002B26D1FC
:100F5C0004239846033B00259A467AE7002B18D1C8
:100F6C0008239846063BFF259A4672E7FF2000228D
:100F7C0091E780220026FF20D2038CE74146022213
:100F8C00013511438846FF350A29A5DC02217E4034
:100F9C0074E70C239846093BFF259A4659E718003D
:100FAC0002F032FA4A46431F76259A4000236D42DE
:100FBC00914698469A462D1A4BE7200002F024FAE7
:100FCC004246431F9C402B1A763B00215D1C0A2A8B
:100FDC0000DC52E780E70122D31A1B2B00DD58E717
:100FEC009E352200AC40DA40631E9C4122435307DD
:100FFC0004D00F231340042B00D00432530137D5F7
:10100C000120002247E7210C4A462404240C270027
:10101C00100C1204120C44435743484351433A0CEE
:10102C0009195218944203D9802149028C46604414
:10103C003F0411043F0CC9198C01671EBC41120CF2
:10104C00890E12180C439201144312010ED5012380
:10105C0062081C40144349E73E00A14680224B46DF
:10106C00D2031A435202FF20520A14E71D003DE737
:10107C0092010020520A0EE70F29EDD180224B4637
:10108C00D2031342EAD01442E8D13E00FF2022439F
:10109C0001E7C046FFFFFFF7F8B54746CE464E02C4
:1010AC0043024500720AC40F480080B594465F0A9B
:1010BC002D0E9B09000EC90FB609FF2824D0012262
:1010CC0051402A1A8C420FD0002A00DC6AE1002819
:1010DC0035D1002E00D1A2E0511E012A00D124E10D
:1010EC00FF2A21D00A002FE0002A00DC67E100284B
:1010FC005ED0FF2D18D08021C9040E431B2A00DCC2
:10110C0076E02A00013332E02A00FF3A9146002EA5
:10111C0042D08C4255D04A46002A00D19CE0002D8A
:10112C0000D177E00C003300DB08002B00D16EE01F
:10113C008022D20313435B02FF205B0A24E0FF2DC5
:10114C00F2D08021C9040E4301211B2A08DC310096
:10115C002020D140821A96403200501E8241114309
:10116C005B1A5A0160D407212A00194057D00F216D
:10117C001940042900D00433590150D5501CFE2AC3
:10118C0045D09B01C0B25B0AC0051843E40720435D
:10119C00C0BCB946B046F8BD012251408C42BAD110
:1011AC004A46002A10D0002D00D198E00023BBE75E
:1011BC00002E34D0511E012A6ED0FF2AB4D00A0062
:1011CC009CE7002A00D088E0FE206A1C104200D068
:1011DC0092E0002D00D0A4E0002B00D1CBE0002E3B
:1011EC0000D0CAE00022DB085B025B0AD0B2CBE77E
:1011FC0031002020D140821A96403200501E82418C
:10120C000A439B185A01AED56A1CFE2D4AD1FF2009
:10121C000023B9E7FF22002B4BD10C003300DB0875
:10122C00FF2A00D181E7DFE79F01BF09380002F0F8
:10123C00EBF805388740854221DC3B002021421B1E
:10124C000132D3408A1A97407A1E974100223B43C1
:10125C00590700D08BE78FE7FE206A1C104212D191
:10126C00002D52D1002B7CD0002EBBD09A1B5001EC
:10127C0000D48BE001240022F31A0C40E8E7564B13
:10128C002A1A3B40E4E79F1B7A0146D4002FCDD1AC
:10129C0000240020002377E79B1901250132590116
:1012AC0000D460E701214D4819405B0803400B4313
:1012BC00CEE7571E012A5AD00C00FF2A33D0012248
:1012CC001B2F07DC2021C91B1A008B40FA40591E2A
:1012DC008B411A430500B31A43E7002D23D1FF229B
:1012EC00002B9BD0511E012AD6D0FF2A1BD01B29C4
:1012FC002CDD0200731C3AE7FF2A88D09B195B088F
:10130C00590700D033E7DB086EE7002B10D1002E15
:10131C0043D0012433000C4006E70124F71A0C409B
:10132C0084E7002B04D13300FEE601259B1B18E754
:10133C00002E00D1F8E68022D203974204D39445C4
:10134C0002D2012433000C40DB08F1E61A00202500
:10135C00CA40691A8B40591E8B41134305009B19D7
:10136C0050E7002E94D0012433000C403AE70C00D7
:10137C000125F31AF5E6330034E79B1900225901D5
:10138C00C1D5154A1340DB0801222DE7002A00D1F4
:10139C007EE713000022DB0826E780230024FF20D1
:1013AC00DB03F1E6002A00D156E7471B3A00002D7B
:1013BC0000D130E78022D2040C0013437FE7002ACF
:1013CC0000D101E7411B002D01D10A0088E78022E2
:1013DC00D20413438BE7C046FFFFFFFBFFFFFF7DEB
:1013EC0041024200C30F490A0020120E7E2A03DD7F
:1013FC009D2A02DD094A9818704780200004014399
:10140C00952A07DC9620821AD1404842002BF3D152
:10141C000800F1E7963A9140F7E7C046FFFFFF7FDF
:10142C0070B5002813D0C317C5185D40C40F280031
:10143C0001F0EAFF9E2301001B1A962B0FDC0828F3
:10144C0034D008398D406D026D0AD8B202E0002408
:10145C0000200025C0052843E407204370BD992BCC
:10146C0016DC421F052800D095402A001148024086
:10147C006E0709D00F263540042D05D004325501D6
:10148C0002D59F2302405B1A9201550AD8B2E1E7BC
:10149C000522121A2800D040020008001B3085409B
:1014AC002800451EA84102431500DEE76D02962078
:1014BC006D0ACFE7FFFFFFFB70B5041E0ED001F0E5
:1014CC00A3FF9E2301001B1A962B0CDC08282FD09F
:1014DC0008398C406402640AD8B201E00020002470
:1014EC00C005204370BD992B16DC421F052800D087
:1014FC009440220010480240650709D00F252C406B
:10150C00042C05D00432540102D59F2302405B1AEF
:10151C009201540AD8B2E3E7020020001B3290403B
:10152C000200501E82410520401AC4401443E0E7DB
:10153C0064029620640AD3E7FFFFFFFBF0B5574621
:10154C004E464546DE46E0B583B0009001910C0353
:10155C004F00CE0F610A009C1D03640F0C430099D1
:10156C0000920193C80059004B0D9946009A019BBB
:10157C006D0AD90F530F2B439A46009B7F0DDA004F
:10158C0094464A46B046BA1A8E4200D1B0E0002AC0
:10159C0000DC78E04946002900D1E9E0C9498F42D6
:1015AC0000D195E10125382A16DC80215346090427
:1015BC000B439A461F2A00DDE7E1202155468B1A82
:1015CC0061469D40D1400D43614699404B1E994167
:1015DC005346D3400D43E41A451BA8428041404278
:1015EC00241A230200D40FE16402640A002C00D1F7
:1015FC0039E1200001F008FF0300083B20212800FE
:10160C00CA1AD0409C4002009D4022439F4200DDFC
:10161C0073E1D81B0130091A2C008D40C4406B1E9D
:10162C009D411300C2408B402543002714001D43ED
:10163C006B0709D00F232B40042B05D02B1DAB427D
:10164C00AD416D4264191D00230200D42DE19D4A69
:10165C000137974200D1D3E046469B49ED08214023
:10166C004A072A437C054D022D0B640D24052C439F
:10167C00F60734431000210003B0F0BCBB46B24661
:10168C00A946A046F0BD002A00D184E04A46D21BF0
:10169C00002F00D06DE12500054300D127E1561E37
:1016AC00012A00D13BE2874DAA4200D16AE2012512
:1016BC00382E12DC32001F2A00DDF8E1202625002E
:1016CC00B61A07005346B040D440B540D740461E2A
:1016DC00B0411B1B9A463D4305436246551BAC4526
:1016EC009241534652420E004F4688469C1A78E768
:1016FC00002A00DC8EE04946002975D1614653462C
:10170C00194300D1F6E0511E012A00D191E16D4D33
:10171C00AA4200D1DCE00125382914DC0A001F2A7A
:10172C0000DDA2E120215346891A8B401D0063463F
:10173C00D3401D4363468B4019004B1E99415346C1
:10174C00D3400D43E4182D188542804140422418A3
:10175C00230259D55B4B01379F4251D001215A4B83
:10176C006A081C4029400A43E507154364085FE7F3
:10177C0061465346194300D1BCE0511E012A00D1E9
:10178C0064E1504DAA4200D16AE10125382900DDFF
:10179C0022E70A000EE74D4A7D1C154200D0D0E02E
:1017AC0025006246534605431A43002F00D037E10B
:1017BC00002D00D1A8E1002A00D16AE16346C51AC8
:1017CC005346E21AA8429B415B42D31A1A0200D438
:1017DC0003E263461D1AAC459241534652421C1B10
:1017EC000E008846A41A23E736498F4270D0012593
:1017FC00382AA8DC8021534609040B439A468EE70D
:10180C003C000025002231E707232B40002B00D0A1
:10181C0010E793E0002A74D04A46D21B002F00D167
:10182C00C7E02849894500D185E10125382A12DC19
:10183C00802109040C431F2A00DDABE12021250087
:10184C00891A070088408D40D740411E8841D440FA
:10185C003D430543A244654465459241524252447E
:10186C0014004F4674E7280001F0CEFD0300183336
:10187C001F2B00DCC2E62A00083882409F4200DDA4
:10188C00A9E0DB1B581C1F2800DCACE115001F3B3A
:10189C00DD40202805D040231B1A9A40531E9A4144
:1018AC001543072300272B40B0E7ED08054B6207D3
:1018BC002A43E4089F420FD02403250B7C05640DBA
:1018CC00D4E6C046FF070000FFFF7FFFFE070000C5
:1018DC00C00862070243E4081300234300D186E1E9
:1018EC0080252D0325432D03C34C2D0BBEE66046EE
:1018FC0054460E001700C508D8E7C04CFF1A144018
:10190C0096E6BF4A791C11426BD122000243002F8C
:10191C0000D0DBE0002A00D12DE1624653461A4389
:10192C0000D1B6E06346C51885428041544440421C
:10193C002418230202D50F00B04B1C403A0028009B
:10194C00D8E76246851AA8429241534652429146C4
:10195C00E31A1A004B46D21A130091461A0254D4B9
:10196C004A464C462A4300D040E600260024002577
:10197C007CE6A14DA94500D190E00125382A00DD77
:10198C00ABE680252D042C4395E6110055462039F5
:10199C00CD40A946202A06D0402153468A1A9340AE
:1019AC0062461A43944665466B1E9D414B461D4349
:1019BC0012E62100014300D1C4E0511E012A00D1DE
:1019CC00FBE08D4DAA4200D1B5E00125382900DDA0
:1019DC0041E70A002FE7894CFF1A14406207E4081C
:1019EC006AE7854A914200D1E3E06346C21882421D
:1019FC0080412300404253441B18DD075C08072339
:101A0C00520815430F002B4000E763461D1AAC45E6
:101A1C009241534652421C1B0E008846A41AE5E51F
:101A2C00002D00D091E0002A38D180240026240318
:101A3C0056E76346C51885428041544440422418F9
:101A4C000127230200D4DFE6022787E66346C51A86
:101A5C00A842804153464042E41A0127241AC0E5AB
:101A6C006207C0080243E40836E7110053462039E8
:101A7C00CB409946202A06D0402153468A1A9340DF
:101A8C0062461A43944665466B1E9D414B461D4368
:101A9C0059E66207C0080243E4080DE753465A07AB
:101AAC006346D80853460E000243DC0814E71500C1
:101ABC002600203DEE40202A03D04025AA1A94404F
:101ACC002043421E90410500354306E6002A7CD097
:101ADC0062465346C0081A4300D1FAE66207104327
:101AEC008022E4081203144208D0D908114205D10F
:101AFC006346D80853460C005B071843420FC000DE
:101B0C00C00852070243E7E6002A00D12DE76346DE
:101B1C00D80853465A070E000243DC08CCE663464D
:101B2C001D1AAC459241534652421C1B0E0088466E
:101B3C00A41A013755E56346D90853465A070A4398
:101B4C00DC08C9E660465446D4E6C008002A00D139
:101B5C00BFE6620710438022E40812031442CDD082
:101B6C00DD081542CAD16346D80853465B070E0000
:101B7C002C001843C2E76346D90853465A070A4358
:101B8C00DC0899E66346D80853465A070E00024310
:101B9C00DC08A1E6110027002039CF40202A03D011
:101BAC0040218A1A94402043421E904105003D4337
:101BBC0051E60C000025002258E560446045924136
:101BCC00544452420500A4183AE753465A07634658
:101BDC00D90853460A43DC087EE61A001C002A4347
:101BEC0000D0ABE6C1E620210025091A19E5002238
:101BFC000025014C3AE5C046FF070000FFFF7FFFC0
:101C0C00FE070000F0B5DE46454657464E46E0B5A9
:101C1C0087B0009201930B031B0B9B46CA0F4B0022
:101C2C00040080465B0D029200D16AE1D44A9342D3
:101C3C0000D18CE15946420FC9000A4380210904A6
:101C4C001143C2009046CF4A894692469A440023DB
:101C5C0000240393009E019F3B031B0B9B467B00C0
:101C6C0030005B0DFD0F002B00D128E1C44A9342DC
:101C7C0000D177E15946720FC9000A43802109044B
:101C8C0011438B46BF49F2008C4651466344CB1A34
:101C9C009A460023029E6E400F2C27D8BA49A40006
:101CAC0009598F46CB464246029E039B022B16D007
:101CBC00032B00D1A6E2012B00D0DFE00022002391
:101CCC00002490461B052343F60733434046190076
:101CDC0007B0F0BCBB46B246A946A046F0BD0022F8
:101CEC0000249046A64BEDE72E00DFE7CB4500D253
:101CFC00D4E100D1CFE101235B429C4644464846E7
:101D0C000027E2445B46150E1B021D43190C2B04E5
:101D1C00120200951D0C914602910395FEF784FA70
:101D2C0002006A430B04210C804619438A4209D9EC
:101D3C00009D0123AC465B4261449C46E0448D42CD
:101D4C0000D8FBE1881A0299FEF76EFA039A240474
:101D5C0042430904240C03000C43A24206D9009907
:101D6C00013B8C466444A14200D8E1E1A01A4246F2
:101D7C0012041A4393464B4659461B0C1D00049300
:101D8C000B0449460904090C0C001B0C5C43120C97
:101D9C006B43884651436A43250CAC465B1863443D
:101DAC00994203D9802149028C466244190C2404BF
:101DBC001B04240C8A181C19904202D316D1A7427A
:101DCC0014D25B46009D013B4F4405934F459B410C
:101DDC00AC465B426344C018854200D3A1E1824209
:101DEC0000D9F6E100D1F1E1059B9B463C1BA742D3
:101DFC00BF41009D801A7F42C01B854200D1D0E1BB
:101E0C000299FEF711FA039A0B044243210C0700C6
:101E1C0019438A4200D978E1881A0299FEF704FA2C
:101E2C00039A240442430904240C03000C43A242E9
:101E3C0000D95DE14146A41A3A041A43049D1304E7
:101E4C001B0C594347466B439C46100C47430B0CE9
:101E5C00BC44634468439F4203D980256D02AC4661
:101E6C0060441F0C09041B04090C3F185B18BC428E
:101E7C0000D202E100D1FDE001231A43434B53444D
:101E8C00002B00DCAEE0510700D098E15946C901A7
:101E9C0006D559463E4B194080238B46DB005344F4
:101EAC003C498B4200DD1AE75946D20849071143D9
:101EBC005A465B0554028846240B5B0D02E75A46D2
:101ECC00009B1A4300D17EE05B46002B00D100E161
:101EDC00584601F099FA020003000B3A1D27009EA8
:101EEC00BA1A19005846D6400839884032000243C5
:101EFC009346009A8A40284953448A469A440023C0
:101F0C00C8E65B460343994656D05B46002B00D18E
:101F1C00CDE0584601F078FA0B235B429C46020058
:101F2C00844466461D239B1B260011005846DE4048
:101F3C000839884033000343994623008B40984668
:101F4C00164B00249B1A9A460023039382E65A46AA
:101F5C00024391462AD100229A4602239046082435
:101F6C00039377E65A46009B1A430D4B9C46E2447A
:101F7C00002A17D102231C4300239B46023389E617
:101F8C00FF07000001FCFFFF9C940108FF03000009
:101F9C00FFFFFFFEFE070000F30300000DFCFFFF38
:101FAC0001F8FFFF032332001C4373E69A46032318
:101FBC00D9460C2403934DE6002398469A460133E8
:101FCC000424039346E601231C4300239B46013360
:101FDC0060E60023802498460026924B240371E689
:101FEC00012252420121C91A382900DD66E61F2957
:101FFC0000DCABE01F204042C31A5846D840030017
:10200C00202904D058468849514488400243511E27
:10201C008A411A43072319000024114013420CD0A3
:10202C000F231340042B00D1F9E0111D91429B4169
:10203C000A005B4259075B021C0BD2080A4390460C
:10204C0000233FE680244B462403234209D05B4601
:10205C00234206D11C4324032E009046714B240BC3
:10206C0030E680244B4624031C432403029E6D4B14
:10207C00240B27E6002B00D100E70098511E844664
:10208C006444844200D284E0BC4200D2AEE000D171
:10209C00C1E00A00F0E6424500D92CE64B46DC07CD
:1020AC00580843465B081C434346DF072AE601F009
:1020BC00ABF915239C4684440200634620321C2B4A
:1020CC0000DC2EE72300083883409946002398460D
:1020DC0036E701F099F902000300153220331C2A6F
:1020EC0000DCFBE600990838814000228B4602E7B1
:1020FC000099013B8C466444A14200D99AE6A24265
:10210C0000D897E6831E644494E6AC466144013FD4
:10211C008D4200D980E68A4200D87DE6871E614454
:10212C007AE6854200D05FE6B94500D95CE656E612
:10213C00A24200D81AE6831E644417E68A4200D8ED
:10214C0000E6AC46831E98466144FBE53748140014
:10215C00504482405B4617008340CC407A1E974126
:10216C0023433B431A005B46CB40510709D00F2158
:10217C001140042905D0111D9142924152429B18E5
:10218C000A00190200D455E70022012300249046CE
:10219C0098E50A00BC4200D06EE64B4500D06BE6D9
:1021AC006CE6234B234A5344924500DA18E701218D
:1021BC0049420A1D8A42894149428B4466E60F21F5
:1021CC001140042900D161E61100F2E7BC4200D8AD
:1021DC000AE602235B429C4600994F444F459B41C3
:1021EC00E3448C465B426344C018FFE54946009DBE
:1021FC00480048458941AC46494261448146023A0F
:10220C006418C7E780245B4624031C4324039046D0
:10221C00044B240B56E59945E8D30A00BDE700238F
:10222C0008E7C046FF0700003E0400001E04000043
:10223C00FF03000002FCFFFFF0B55746DE464E469A
:10224C004546E0B50D000400E80F83460903D80F9E
:10225C00090B824619488C461F0369005E00490D24
:10226C003F0B760D814218D086420FD00120B1422F
:10227C000DD1BC450BD1944209D1D3451CD00029BA
:10228C0005D160462043431E984100E00120F0BC7C
:10229C00BB46B246A946A046F0BD01208E42F6D1FF
:1022AC00614639430F0017432743F0D15B46524632
:1022BC00981A431E9841EAE70020E8E7FF07000060
:1022CC00F0B557464E464546DE46E0B50D000F03C9
:1022DC00390B83B00400804601915800E90F314F4F
:1022EC00400D8C466E00190382469146760D090B03
:1022FC00D80FBE421FD0BA450FD0002E2FD1554655
:10230C00019E3443002D27D10A433AD0002C45D1ED
:10231C0000281AD10120404217E011433BD1002E76
:10232C0002D1019F2743F3D0844509D16346002B8A
:10233C00F0D0604609E0019F27432CD1B24524D050
:10234C0063460220013B1840013803B0F0BCBB4689
:10235C00B246A946A046F0BD002CD9D0E4E75446BD
:10236C00002CEDD08445EBD15645E9DCDEDB019B3E
:10237C008B42E5D8DAD1C845E2D80020C845E4D272
:10238C00D4E70020002CE0D0DAE7114303D18445D8
:10239C00D6D10020D9E702204042D6E78445E6D0CA
:1023AC00CEE7C046FF070000F0B557464E464546FF
:1023BC00DE46E0B50D000F0304008046E80F390B34
:1023CC00844683B05800304F400D01911E036900C4
:1023DC0082469146490D360BD80FB94220D0BA45EA
:1023EC000FD000292BD101990C435146002937D12C
:1023FC00324338D0002C44D1002819D1012040425E
:10240C0016E0164313D1002902D1019F2743F3D0C4
:10241C00844520D063460220013B1840013807E078
:10242C00019F274303D18A45F4D116431FD00220C4
:10243C0003B0F0BCBB46B246A946A046F0BD54461C
:10244C00002CE7D08445E5D15145E3DC03DB019B4F
:10245C00B342DFD80FD06346002BCFD06046E7E7FE
:10246C00002CC9D0D4E70020002CE1D0D2E7844561
:10247C00D0D10020DCE7C845CCD80020C845D7D245
:10248C00E9E78445E3D0C5E7FF070000F0B5574600
:10249C00DE464E464546E0B51F000B031B0B1600EF
:1024AC009A46CA0F4B000400934687B05B0D00D1CF
:1024BC00D5E0BB4A934200D1F8E05146420FC90027
:1024CC000A43802109041143C2009146B54A8A4649
:1024DC009D180023984602933C037B00FA0F3000B2
:1024EC00240B5B0D009200D196E0AD4A934231D0A3
:1024FC00720FE4002243802424041443A94AF00000
:10250C00944663445B195A1C0192424600260A2ADF
:10251C0042DC5A4600994A4093464246022A32DC33
:10252C00013A012A00D949E1022E00D1CAE0012E5C
:10253C003DD100230024002210005A461B052343E2
:10254C00D2071343190007B0F0BCBB46B246A946EC
:10255C00A046F0BD924B2643EB18002E00D1BBE0F9
:10256C000322414611435A46884600994A4080212D
:10257C0009018C4629006144019141460A2900DD7C
:10258C0033E293460326424601279740A6213A00A0
:10259C00C9000A400F4231D0029E022E00D135E212
:1025AC00032E00D1D2E154464846012EC1D0019AE7
:1025BC007D4B94466344002B00DCC0E0420709D0FD
:1025CC000F220240042A05D0021D82428041404263
:1025DC0024181000E20106D5744B019A1C4080238C
:1025EC009446DB006344724A93426BDC6207C0087A
:1025FC0064025B050243240B5B0D9DE7902189006F
:10260C000F4263D188223A4200D1D7E0009BA24608
:10261C009B4681460296BFE72300334300D17FE0FF
:10262C00002C00D1ADE1200000F0EEFE0200030012
:10263C000B3A1D201900821A30000839D0408C400A
:10264C000443300088405B4AEB1A944663445A1C9E
:10265C000192424600260A2A00DC5AE79CE75346C0
:10266C000343994654D05346002B00D177E1504692
:10267C0000F0CAFE0B235B429C460200844411000E
:10268C005046083988401D23804660461B1A20009E
:10269C00D8400300404603439A4623008B4099469A
:1026AC000023444D9846AD1A029315E75246024357
:1026BC00914626D100221D000223924608329046F4
:1026CC00029309E700240022354B35E700238024D0
:1026DC009B462403324B2FE70222414611438022B2
:1026EC00120194462A006244884601920A2900DDB0
:1026FC0052E75A460020009904004A4093460226AD
:10270C000BE70C221D000323814690460293E3E65F
:10271C0000239A4604339846033B00250293DBE6DC
:10272C00424601331A432B0090465A1C01924246F2
:10273C000024002001260A2A00DCEAE62CE701220C
:10274C00D21A382A00DDF4E61F2A00DC2AE11F2108
:10275C004942CB1A2100D9400B00202A05D0164A39
:10276C00019D94466544AC402043421E9041184361
:10277C00072319000024014003420CD00F2303400F
:10278C00042B00D140E1031D8342A4411800644294
:10279C0061076402240BC20800230A43CCE6C0463E
:1027AC00FF07000001FCFFFFFF030000FFFFFFFE1F
:1027BC00FE0700000DFCFFFF3E04000049464A46A0
:1027CC000904090C0D00160C020C0004000C454306
:1027DC00AC4605007543A84615000F0075430092E2
:1027EC0002952A00009D6F4365462D0CA94647446F
:1027FC004F44B84505D915008022520290464544F5
:10280C0002953D0C039565462D043F042D0CAC46FA
:10281C003D0065440495250C2404240CAC4625008D
:10282C007543A84665460F00694341448946674392
:10283C00390C49446E43884503D980225202904694
:10284C0046440D0CA846350045440595039D3F04B0
:10285C00A8463F0C0904C9198844454603955546BA
:10286C002E04360C2F0C3500454378438146380036
:10287C00A8462D0CAA46009A504372434A4452442F
:10288C00914503D980256D02A9464844150CA946EB
:10289C0045462D042D0CA84665467D43120448443C
:1028AC009044A9463200654662436E437C43170C44
:1028BC003619BF19BC4203D980246402A446E144F2
:1028CC00029C039EA446059D66448E428941AC46FB
:1028DC0012043C04120CA218624449425418464497
:1028EC00A4464645A44182466442A046AA4292416F
:1028FC008C458941E244D044494252420A43A045A6
:10290C00A44182458941644249420C4341463F0CF3
:10291C00D2191219CC0D049970020843411E88413A
:10292C0041464A44F60D52023043490214430843CF
:10293C00D20135D50122430802401343E007184366
:10294C00640834E6009BA2469B468146802453468D
:10295C0024031C4324034A462E4B240BECE500F0C5
:10296C0053FD15239C4684440200634620321C2BE5
:10297C0000DC84E6002399462300083883409A46FD
:10298C008EE600F041FD02000300153220331C2AB4
:10299C0000DC4EE602003400083A0020944052E677
:1029AC00019304E61C4B21009C460300019DD3407F
:1029BC006544A94019430300AB40581E8341194399
:1029CC000800D4404B0709D00F230B40042B05D033
:1029DC000B1D8B428041404224181800230200D466
:1029EC00D6E6012300240022A6E50F29AAD18023D4
:1029FC0052461B031A42A9D01C42A7D11C43009B70
:102A0C0002009B46034B97E50024C1E60024014BD2
:102A1C00220091E5FF0700001E040000F0B54E46B1
:102A2C004546DE465746E0B585B0009001910C0353
:102A3C004F00CE0F610A009CB046640F0C43009906
:102A4C007F0DC80011001A001B039C4600910192D7
:102A5C0051004B0D9946019B009DD90F63466A0F9F
:102A6C005B0A1343EA0094469346C14A03900293CF
:102A7C00914500D1CDE0012569404D467D1BAA460C
:102A8C008E4200D180E0002D00DC35E34946002960
:102A9C0000D1DFE0974200D194E152460125382A5B
:102AAC0019DC8022029B12041343029352461F2A04
:102ABC0000DDE3E1534620226146029DD21A954087
:102ACC00D9400D43614691400A00511E8A4115437D
:102ADC00029ADA40A41A451BA84280414042241AAB
:102AEC00230200D43DE16402640A002C00D147E1CA
:102AFC00200000F089FC0300083B20212800CA1AA2
:102B0C00D0409C4002009D4022439F4200DD77E173
:102B1C00D81B0130091A2C008D40C4406B1E9D41FE
:102B2C001300C2408B402543002714001D436B0744
:102B3C0009D00F232B40042B05D02B1DAB42AD41EC
:102B4C006D4264191D00230200D440E1884A01370C
:102B5C00974200D101E1012643468649ED08214008
:102B6C004A072A437C054D022D0B640D1E4024059B
:102B7C002C43F60734431000210005B0F0BCBB46D3
:102B8C00B246A946A046F0BD002D00DCD0E2494675
:102B9C00002900D0D4E06146029B194300D12BE1FF
:102BAC00691E012D00D1D9E1954200D10AE1012520
:102BBC00382917DC8A4653461F2B00DDE7E120221B
:102BCC00D21A029B614693401D005346D94063467E
:102BDC0093401A000D43511E8A4153461543029AE5
:102BEC00DA40A4182D188542804140422418230253
:102BFC0000D4B6E05E4B01379F4200D1ADE001211D
:102C0C005C4B6A081C4029400A43E50715436408DD
:102C1C008DE7594A029B92466246BA441A432CD01D
:102C2C008E422ED05246002A60D0002F00D1DBE01D
:102C3C0063460E00029CD80862070243E4081300A6
:102C4C00234300D154E280252D0325432D03484C0A
:102C5C002D0B8CE76146029B194300D1CCE0290077
:102C6C000139012D00D188E1954200D1AAE001255E
:102C7C00382900DD2FE78A4618E7012251408E42A1
:102C8C00D0D15346002B00D1BEE0002F00D038E14C
:102C9C00CA462200024300D1E2E15346591E012BE1
:102CAC0000D10DE2324A924500D1D2E101273829F8
:102CBC0013DC1F2900DDEEE12022029B521A2500B5
:102CCC0007009A46CC4090409540CF40A244421E0B
:102CDC00904153462F43074302933D00654465459D
:102CEC009241029B52424F46D41880E7234A7D1CE6
:102CFC00154200D0AAE062462500029B05431A4308
:102D0C00002F00D0F5E0002D00D16BE1002A00D19E
:102D1C0052E16346C51A029BE21AA8429B415B42F0
:102D2C00D31A1A0200D4D5E163461D1AAC45924160
:102D3C000126029B52421C1B8846A41A0E40F6E642
:102D4C0097423FD052460125382A00DD4AE78022BF
:102D5C00029B1204134302932DE73C000025002232
:102D6C0005E707232B40002B00D0E2E66BE0C046C2
:102D7C00FF070000FFFF7FFF01F8FFFFFE070000C9
:102D8C00280000F041FB030018331F2B00DCB4E6D5
:102D9C002A00083882409F4200DDB9E0DB1B581C3A
:102DAC001F2800DCA0E115001F3BDD40202805D0CA
:102DBC0040231B1A9A40531E9A41154307230027A0
:102DCC002B40D0E7C00862070243E40837E7EA0863
:102DDC0063071A43D34BE4089F4200D12FE7240327
:102DEC00250B7C05640DC2E6CA462200024358D16D
:102DFC0063460E00029C0393039B5746DA08E7E7F1
:102E0C00C94CFF1A144092E6C84D7A1C2A4200D0D5
:102E1C0084E022000243002F00D0EFE0002A00D112
:102E2C00E5E0624602990A4300D1C5E06346C51845
:102E3C008C4685428041644440422418230202D5CA
:102E4C00B94B01371C40BA460395D5E76246851A43
:102E5C00A842924152429146029BE31A1A004B46F9
:102E6C00D21A130091461A026CD44A464C462A4395
:102E7C0000D03AE600260024002578E60299534655
:102E8C000D00203AD540202B06D04022D21A0B0040
:102E9C00934062461A4393465B465A1E93411D4328
:102EAC0019E653465A1E012B00D1C6E09D4EB24581
:102EBC0000D1BDE688460E000125382A10DC1F2AF9
:102ECC007FDC20212500891A070088408D40D740DF
:102EDC00D440411E8841029B3D431B1B054302937A
:102EEC006246551BAC459241029B52424F469C1A7E
:102EFC00F6E5002D00D0B7E0002A00D1F0E0012665
:102F0C000E4063460298D90842070A43C40896E665
:102F1C00854CFF1A14406207E40860E781498A4235
:102F2C0000D1C9E06346C11881428041029B4042F6
:102F3C00E3181B18DD075C08072349080D4317002D
:102F4C002B4010E763461D1AAC4592410126029BAB
:102F5C0052421C1B8846A41A0E40C6E56346C5188F
:102F6C00029B854280419C464042644424180127C0
:102F7C00230200D4F5E6022741E66346C51AA842AF
:102F8C008041029B4042E41A0127241AA8E5029DC5
:102F9C0052462B00203AD34019005346202B06D022
:102FAC004022D21A2B00934062461A4393465D4648
:102FBC006B1E9D410D4315E66207C0080243E408F1
:102FCC000DE7110027002039CF40202A05D04021E1
:102FDC008A1A9440250005430395039D6A1E95416A
:102FEC003D437DE7002A00D144E701260E406346AD
:102FFC00D908029B5A070A43DC08F0E6002A28D0BD
:10300C006246029FC0083A4300D1DCE662071043D7
:10301C008022E4081203144209D0FD08154206D19F
:10302C00634601262C00D8087B0718430E40420F3C
:10303C00C000C0085207024301E663461D1AAC45A6
:10304C009241029B52421C1B0E0088460127A41A77
:10305C0046E56346D908029B5A070A43DC08EEE5AD
:10306C006346029C0393C7E6C008002A00D1AAE677
:10307C00620710438022E40812031442D7D0029F47
:10308C00FD081542D3D163460126D8087B072C00D6
:10309C0018430E40CBE70A002700203AD7402029DE
:1030AC0005D04022521A9440250005430395039DF8
:1030BC006A1E95412F4310E614000025002256E5A8
:1030CC00029B60449946604592414C445242050033
:1030DC00A4184CE71A001C002A4300D0B3E6C9E63A
:1030EC00802400262403AEE520210025091A17E5CB
:1030FC00002200250B4C3AE5002D00D1F6E54B469D
:10310C00DA1B9246002F00D16FE6382A05DC8026A8
:10311C003604344388460E00D1E688460E0001255D
:10312C00DEE6C046FF070000FFFF7FFFFE07000042
:10313C00002D00D168E64B46D91B002F01D18A46E1
:10314C00A7E50127382900DDC7E5802212041443C6
:10315C00AFE5C0460B00020070B5164D0C0382B0F3
:10316C004900002000920193240B490DDE0FA94267
:10317C0004DD1148814203DD104BF01802B070BD24
:10318C008020400320430E4C641A1F2C08DD0D4B8D
:10319C005B1AD84003005842002EEFD11800EDE71F
:1031AC00094B009A9C46030061448B40E240134358
:1031BC00F1E7C046FE0300001D040000FFFFFF7F87
:1031CC003304000013040000EDFBFFFF70B5002872
:1031DC0016D0C317C5185D40C40F280000F014F9B1
:1031EC00104B1B1A5B055B0D0A2814DC02002E0029
:1031FC00153296400B22121AD5402D032D0B03E0ED
:10320C0000240023002500261B052B43E407234341
:10321C003000190070BD0B3885402D0300262D0B96
:10322C00F2E7C0461E04000010B5041E10D000F0DA
:10323C00EBF80E4B1B1A5B055B0D0A280FDC0B22FF
:10324C002100121AD14015300A038440120B01E000
:10325C00002300221B0513432000190010BD22007F
:10326C000B38824012030024120BF3E71E040000FB
:10327C0070B542024300C40FFE201B0E591C550AA8
:10328C0008420CD0E02189008C466D07120B634478
:10329C001B051343E40723432800190070BD002BC2
:1032AC0014D1002D1BD0280000F0AEF80A281CDC2D
:1032BC000B232A001B1ADA40030015339D400E4BDA
:1032CC0012031B1A5B05120B5B0DE1E7002D09D0F5
:1032DC00130B802212031A436D07084BD8E7002307
:1032EC000022D5E70022054BD2E703002A000B3B56
:1032FC009A400025E3E7C04689030000FF07000061
:10330C00F0B54B000F035B0D3B4C450F83B07F0AB0
:10331C005E1C2F4300900191CA0FC50026420BD0B2
:10332C0036495C18FE2C13DDFF200023C005184322
:10333C00D207104303B0F0BD002B02D100200023B4
:10334C00F4E73D43F0D08023DB03FF203B43EDE764
:10335C00002C14DD009BFF009B01581E8341690F5C
:10336C003B430B43590741D00F211940042928D066
:10337C000433590125D501340023E0B2D6E72100EE
:10338C001731DBDB80211E2009043943001B1F2869
:10339C001BDD02267642341B0E00E640340020284A
:1033AC0004D017488446634499400D432B00591EA2
:1033BC008B412343590715D00F21002419400429B0
:1033CC0017D19B015B0AE0B2B0E70E4C1C192B0025
:1033DC00A540C340A140681E854129430B430024EE
:1033EC005907C1D19B0100205B0A9FE7DB08E0B2C3
:1033FC009CE70433E5E7C046FE07000080FCFFFFB6
:10340C00A2FCFFFF82FCFFFF1C2101231B0498423E
:10341C0001D3000C10391B0A984201D3000A083959
:10342C001B09984201D30009043902A2105C401810
:10343C007047C046040302020101010100000000B4
:10344C000000000010B5002903D1FFF7DDFF20308C
:10345C0002E00800FFF7D8FF10BDC04680B500AFF2
:10346C00A023DB050022102118000BF09CF8012092
:10347C000AF0CCFAC046BD4680BD80B500AFA02393
:10348C00DB050122102118000BF08DF801200AF049
:10349C00BDFAC046BD4680BD80B582B000AF02000B
:1034AC00FB1D1A70C046084B1B689B680222134018
:1034BC00022BF8D1F91D0448642301220DF008FFFA
:1034CC00C046BD4602B080BDE808002080B582B081
:1034DC0000AF78600A00BB1C1A80C046084B1B6802
:1034EC009B6802221340022BF8D1BB1C1A88796806
:1034FC00034864230DF0ECFEC046BD4602B080BD0F
:10350C00E808002080B584B002AFFB1DFF221A70C2
:10351C00C0460A4B1B689B6802221340022BF8D151
:10352C00BA1DF91D05486423009301230EF028F8F9
:10353C00BB1D1B781800BD4602B080BDE8080020FA
:10354C0080B582B000AF7860FFF7DCFF03001A0093
:10355C007B681A70C046BD4602B080BD90B583B082
:10356C0000AF0C4BFA2252001A80FC1DFFF7CAFF69
:10357C0003002370FB1D1B78FF2B04D0054B1B880D
:10358C009BB2002BF1D1FB1D1B781800BD4603B07C
:10359C0090BDC0466034002080B584B000AF204B95
:1035AC00FB60FFF76AFF0023BB6005E0FF20FFF71D
:1035BC0073FFBB680133BB60BB68092BF6DDFFF7FB
:1035CC004DFF3B0040221A703B0000225A703B001A
:1035DC0000229A703B000022DA703B0000221A7124
:1035EC003B0095225A713B0006211800FFF76EFF35
:1035FC0002E0FB68013BFB60FFF784FF0300012B3B
:10360C0002D0FB68002BF4D1FFF737FFFF20FFF748
:10361C0043FF044B01221A70C046BD4604B080BD66
:10362C00FF1F00002105002080B500AF024B0022D7
:10363C001A70C046BD4680BD2105002080B500AF84
:10364C00024B1B781800BD4680BDC04621050020EA
:10365C00B0B584B000AF78603960164BC8221A80C0
:10366C000F257C19FFF74EFF030023707B191B7885
:10367C00FF2B04D10F4B1B889BB2002BF0D10F23D7
:10368C00FB181B78FE2B01D000230FE07B685A1C23
:10369C007A601800FFF754FF3B685A1E3A60002B03
:1036AC00F4D1FFF72FFFFFF72DFF01231800BD46C4
:1036BC0004B0B0BD5E340020B0B584B000AF78600B
:1036CC000A00FB1C1A700E23FB1800221A70FFF75D
:1036DC0045FF0300FF2B01D000233CE0FB1C1B78B3
:1036EC001800FFF7D9FEFB1C1B78FD2B29D080237B
:1036FC009A007B6811001800FFF7E8FEFFF702FF45
:10370C00FFF700FF11E00F257C19FFF7FBFE03000C
:10371C0023707B191B781F221340052B0BD00E2115
:10372C007B181A787B1801321A700E23FB181B7841
:10373C00402BE8D900E0C046C046FFF7E3FE031E6D
:10374C00FBD00F23FB181B781F221340052B01D134
:10375C00012300E000231800BD4604B0B0BDB0B595
:10376C0084B000AF02003960FB1D1A70FFF7F6FE43
:10377C000300FF2B01D0FF2359E0FB1D1B78180021
:10378C00FFF78AFE3B681B0EDBB21800FFF784FEC6
:10379C003B681B0CDBB21800FFF77EFE3B681B0A74
:1037AC00DBB21800FFF778FE3B68DBB21800FFF7BE
:1037BC0073FEFB1D1B78402B04D10F23FB189522A5
:1037CC001A700CE0FB1D1B78482B04D10F23FB183F
:1037DC0087221A7003E00F23FB1801221A700F23A3
:1037EC00FB181B781800FFF757FEFB1D1B784C2BA2
:1037FC0001D1FFF787FE0E23FB180A221A700D2544
:10380C007C19FFF77FFE030023707B191B785BB2DA
:10381C00002B09DA0E217B187A181278013A1A70EB
:10382C007B181B78002BEAD10D23FB181B78180092
:10383C00BD4604B0B0BD0000B0B584B000AF02000E
:10384C00FB1D1A70FB1D1B78002B01D00123F6E029
:10385C007D4B1B78DBB21A000223134003D07A4B4A
:10386C001B78DBB2EBE0FFF797FEFFF7F7FD0E23BB
:10387C00FB1800221A7000214020FFF770FF030094
:10388C00012B00D0C0E0714BFA2292001A80D52394
:10389C005B0019004820FFF762FF0300012B00D0EA
:1038AC006DE00F23FB1800221A700EE00F257B1918
:1038BC001C78FFF727FE03001A000823FB181A5583
:1038CC007B191A787B1901321A700F23FB181B789D
:1038DC00032BEBD90822BB189B78012B00D093E06B
:1038EC00BB18DB78AA2B00D08EE000217720FFF7E5
:1038FC0036FF0300012B07D88023DB051900692054
:10390C00FFF72DFF031E05D0504B1B889BB2002BDD
:10391C00EBD100E0C0464D4B1B889BB2002B00D175
:10392C0072E000217A20FFF71AFF031E00D06BE033
:10393C000F23FB1800221A700EE00F257B191C7840
:10394C00FFF7E0FD03001A000823FB181A557B193A
:10395C001A787B1901321A700F23FB181B78032B72
:10396C00EBD90823FB181B781A004023134001D015
:10397C000C2200E004220E23FB181A7044E00021F4
:10398C007720FFF7ECFE0300012B08D800216920FB
:10399C00FFF7E5FE0300012B01D8022200E0012213
:1039AC000E23FB181A700E23FB181B78022B0DD15B
:1039BC0000217720FFF7D3FE0300012B0CD8002148
:1039CC006920FFF7CCFE031E06D10CE0002141203C
:1039DC00FFF7C5FE031E05D01C4B1B889BB2002BAA
:1039EC00E1D100E0C046194B1B889BB2002B07D0DD
:1039FC0080239B0019005020FFF7B1FE031E03D05B
:103A0C000E23FB1800221A70114B0E243A1912784F
:103A1C001A70FFF732FDFFF775FD3B191B78002B71
:103A2C0008D0094B1B78DBB201229343DAB2064B68
:103A3C001A7001E0FFF7F8FD034B1B78DBB218009E
:103A4C00BD4604B0B0BDC046000000205E3400206E
:103A5C002005002080B582B000AF0200FB1D1A705B
:103A6C00FB1D1B78002B01D0012302E0034B1B78BC
:103A7C00DBB21800BD4602B080BDC046000000207D
:103A8C0080B584B000AFB9607A603B600F217B18C1
:103A9C00021C1A707B181B78002B02D13B68002B80
:103AAC0001D1042353E02C4B1B78DBB21A00012309
:103ABC00134001D003234AE0284B1B781A0004233F
:103ACC00134002D17B685B027B60FFF7C7FC3B684D
:103ADC00012B12D17B6819005120FFF740FE031E09
:103AEC002DD180239A00BB6811001800FFF7B0FDA0
:103AFC00031E24D000233B6021E07B681900522078
:103B0C00FFF72DFE031E1AD180239A00BB6811000B
:103B1C001800FFF79DFD031E0CD0BB68802292009D
:103B2C0094466344BB603B68013B3B603B68002BA5
:103B3C00EAD100E0C04600214C20FFF710FEFFF751
:103B4C009CFCFFF7DFFC3B685A1E9341DBB218006C
:103B5C00BD4604B080BDC0460000002020050020FA
:103B6C0080B584B000AFB9607A603B600F217B18E0
:103B7C00021C1A707B181B78002B02D13B68002B9F
:103B8C0001D104236BE0384B1B78DBB21A00012304
:103B9C00134001D0032362E0334B1B78DBB21A00D5
:103BAC000423134001D0022359E0304B1B781A0038
:103BBC000423134002D17B685B027B60FFF74EFC51
:103BCC003B68012B10D17B6819005820FFF7C7FD0B
:103BDC00031E3CD1BB68FE211800FFF76DFD031ED0
:103BEC0035D000233B6032E0204B1B781A000223B7
:103BFC00134008D000217720FFF7B1FD3B68190076
:103C0C005720FFF7ACFD7B6819005920FFF7A7FD83
:103C1C00031E1CD1BB68FC211800FFF74DFD031ED1
:103C2C000CD0BB688022920094466344BB603B6816
:103C3C00013B3B603B68002BECD100E0C046FD2112
:103C4C000020FFF739FD031E01D101233B60FFF774
:103C5C0014FCFFF757FC3B685A1E9341DBB218006B
:103C6C00BD4604B080BDC0460000002020050020E9
:103C7C0090B58BB000AF3A60FB1D021C1A70BB1DD7
:103C8C000A1C1A703B683B62FB1D1B78002B01D091
:103C9C00042319E12723FB1801221A70BB1D1B7882
:103CAC00052B27D13B6A1B78022B13D01DDC002B74
:103CBC0002D0012B07D018E0FFF7B6FC2723FB1826
:103CCC0000221A70FDE0FFF767FC2723FB18002287
:103CDC001A70F6E03B6A5C1CFFF7B0FC0300237023
:103CEC002723FB1800221A70EBE02723FB18042271
:103CFC001A70E6E0764B1B78DBB21A0001231340F6
:103D0C0001D00323E0E0FFF7A9FBBB1D1B780D2BB3
:103D1C0000D9C6E09A006F4BD3181B689F46002150
:103D2C004920FFF71CFD031E00D0BFE00C243B19FB
:103D3C0010211800FFF78CFC031E00D1B6E0220006
:103D4C00BB181B789B09DBB2012B13D11100BB18DC
:103D5C005B7A1A007B181B7A1B029BB2D3189AB29F
:103D6C001E217B1801321A807B181B889A023B6833
:103D7C001A6039E00C203B185B790F221340DAB241
:103D8C003B189B7ADB09DBB2D318DAB23B185B7AAF
:103D9C005B00DBB206210B40DBB2D318DAB226246F
:103DAC003B1902321A703B181B7A9B09DBB21A00C2
:103DBC003B18DB799B009BB2D3189AB23B189B79CA
:103DCC009B0299B2C0231B010B409BB2D3189AB231
:103DDC001E217B1801321A807B181A883B191B781C
:103DEC00093B9A403B681A602723FB1800221A7083
:103DFC005CE03B68802292001A802723FB1800228B
:103E0C001A705AE0FFF7AAFB0300FF2B50D12723AF
:103E1C00FB1800221A704BE000214920FFF79FFC91
:103E2C00031E47D13B6A10211800FFF711FC031E3B
:103E3C0040D02723FB1800221A703BE000214A20B7
:103E4C00FFF78DFC031E37D13B6A10211800FFF7DA
:103E5C00FFFB031E30D02723FB1800221A702BE027
:103E6C0000217A20FFF77BFC031E1AD12623FB18B6
:103E7C0000221A700CE03C6A631C3B62FFF742FBA9
:103E8C000300237026217B181A787B1801321A70D4
:103E9C002623FB181B78032BEDD92723FB180022B4
:103EAC001A702723FB1804221A7006E0C04604E09F
:103EBC00C04602E0C04600E0C046FFF7DEFAFFF75E
:103ECC0021FB2723FB181B781800BD460BB090BDB7
:103EDC0000000020DC94010880B584B000AF78604D
:103EEC000023FB6002E0FB680133FB607B685A1C1B
:103EFC007A601B78002BF6D1FB681800BD4604B025
:103F0C0080BD000080B582B000AF00237B6007E06D
:103F1C00084A7B68D31800221A707B6801337B60D7
:103F2C007A688023DB009A42F2DBC046C046BD466D
:103F3C0002B080BD302F002090B585B000AF786006
:103F4C001C4B18000FF068F91B4B1B685B68DAB24E
:103F5C000F23FB1840218A1A1A70184B184A13CADF
:103F6C0013C3164B1B78002B07D1144B5B78002B1B
:103F7C0003D17B68180000F047F8104BDB78832BDB
:103F8C0002D1104B01221A700F243B191A780C4BDA
:103F9C000021180014F010FB3B1900221A7008497C
:103FAC00044B402218000FF0CDF8C046BD4605B0BA
:103FBC0090BDC0464C0600208C080020340A00201E
:103FCC00740A0020300A002080B582B000AF7860FF
:103FDC007B681B680A4A93420ED10A4B1B68DB694B
:103FEC0010221340102B07D1064B1B6810221A62AB
:103FFC007B681800FFF7A0FFC046BD4602B080BD2D
:10400C00003801404C06002080B582B000AF7860CB
:10401C007B681B68054A934203D1054B18000FF0CF
:10402C008DF9C046BD4602B080BDC0460038014087
:10403C004C06002090B583B000AF7860404B1A88D6
:10404C00404B1A80404A414B100019000A231A00B9
:10405C0014F0E6FA7B681B683D4A934265D13D4BF0
:10406C001B78012B56D13C4B1B78012B38D13B4B89
:10407C001B882D2B26D93A4B1B78FF2B22D1374B83
:10408C0000221A80374B30220021180014F094FAC9
:10409C00344B354A13CA13C313CA13C313CA13C3FD
:1040AC0013CA13C3304B30220021180014F084FAC9
:1040BC002E4B01221A70274B00221A70264B00221D
:1040CC001A7032E0254B1B881A00254B1978264BA9
:1040DC009954224B1B8801339AB2204B1A8024E04E
:1040EC001F4B1B78BB2B03D11B4B01221A701CE0FE
:1040FC001B4B1B78CC2B09D1174B00221A70114982
:10410C001B48FF2310220EF007FF0EE0124B00227B
:10411C001A700AE0124B1B78AA2B03D10D4B01220B
:10412C001A7002E00B4B00221A700D49104B012241
:10413C0018000EF09DFFC046BD4603B090BDC046B2
:10414C00040C0020F40B0020F60B0020080C0020BF
:10415C0000480040EF0B0020F00B0020D233002071
:10416C006C0A0020BC0B0020D4330020EE0B002086
:10417C006C07002080B582B000AF78607B681A684D
:10418C008023DB059A424DD14E4B1B68002B19D175
:10419C007B68002118000EF033FB02004A4B1A60BA
:1041AC00484B01221A607B681B681A6A7B681B6883
:1041BC000A218A431A627B681A687B681B68126A38
:1041CC001A622FE03F4B1B68012B2BD17B6800211F
:1041DC0018000EF015FB02003C4B1A607B681B6844
:1041EC0000225A62394B1A68374B1B689A4206D91F
:1041FC00364B1A68344B1B68D21A354B1A60314B4C
:10420C0000221A607B681B681A6A7B681B680A218B
:10421C008A431A627B681B681A6A7B681B680221D6
:10422C000A431A627B681B682A4A934246D12A4B7E
:10423C001B68002B10D17B68002118000EF0E0FAEF
:10424C000200264B1A60244B01221A60244B1B6877
:10425C005A1C234B1A6031E01F4B1B68012B2DD1CC
:10426C007B68002118000EF0CBFA02001D4B1A607F
:10427C001B4B1B685A1C1A4B1A601A4B1A68174BAB
:10428C001B689A4207D9174B1A68144B1B68D21A31
:10429C00154B1A600FE0134B1A68104B1B689A42AF
:1042AC0009D2104B1A680D4B1B68D31A802252028C
:1042BC009A180D4B1A60084B00221A60C046BD4676
:1042CC0002B080BDAC0C0020940C0020980C002097
:1042DC00A80C0020002C0140B00C00209C0C0020ED
:1042EC00DC0C0020A00C0020A40C002080B582B0B7
:1042FC0000AF78607B681B68064A934206D1064B78
:10430C001B78002B02D1044B01221A70C046BD460B
:10431C0002B080BD00040040CE33002090B593B0B5
:10432C0010AF09F0EDFA00F039F900F0E3FC00F001
:10433C00C3FC00F05DFA00F08DF900F0CBF900F051
:10434C0009FA00F0ABFA00F0F7FA00F029FB00F0E4
:10435C005BFB00F097FB00F0FBFB11F08DF9031EEB
:10436C0001D008F073F900F04FFC00F066F9734BC4
:10437C001B681A68714B1B6810210A431A6070493C
:10438C006E4B402218000EF0DDFE6E496E4B012282
:10439C0018000EF06DFE6D4B18000DF099FD6B4B77
:1043AC00002118000DF048FE694B18000DF090FD2F
:1043BC00674B002118000DF03FFE664B18000DF006
:1043CC0087FDC82009F022FB04F054FD624CA223A7
:1043DC000F936B461800230010333C22190014F085
:1043EC001FF920686168A268E36808F035F95B4939
:1043FC005B4B0122180013F0BFF803001A00594B55
:10440C001A705949594B0622180013F001F9030090
:10441C001A00544B1A70564A564B1000190084233C
:10442C001A0014F0FDF8524B1800FFF755FD03006D
:10443C001A00514B4E494D4813F0EFFA03001A0085
:10444C00484B1A70494B180013F00BFDFFF75AFD3F
:10445C0006F0E0FF494B9A79494B1A70474BDA79D1
:10446C00474B5A70454B1A7A454B9A70434B5A7AC4
:10447C00434BDA70414B9A7A414B1A713F4BDA7AC3
:10448C003F4B5A713E4B20229A713D4B4122DA71BF
:10449C003B4B30221A723A4B30225A72384B302234
:1044AC009A72374B3022DA72354B31221A73344BF5
:1044BC0020225A73334B1B78002BFBD0324B02213A
:1044CC0018000AF053F8031E27D1304B1B78002B31
:1044DC001AD02E4B00221A7004F078FC04F09CFCCD
:1044EC0004F0C8FC04F064FE294B102200211800D3
:1044FC0014F062F83B1D274A12781A70391D1248C5
:10450C00022301220EF008FD04F088FE1B490B4823
:10451C001C230E220EF000FD0CE01F4B1B78002B11
:10452C0004D005F003FA06F013FA03E005F0FEF9E7
:10453C0000F0BEFC134B00221A70BBE74C060020A7
:10454C00740A00206C0A00206C0700204C09002023
:10455C0098090020E409002024050020D88E0108C9
:10456C00C40E0020282F0020DC8E0108F81E00202D
:10457C00302F0020EC8E01082C2F002098000020FA
:10458C0030330020CE33002000040050EE0B00200E
:10459C00F40B0020708F0108310D002090B593B002
:1045AC0000AF10243B19180038231A00002114F016
:1045BC0003F83B00180010231A00002113F0FCFF35
:1045CC0080239B0018000BF0C3FE3B1902221A60DB
:1045DC003B1980225200DA603B1900221A613B1908
:1045EC0040225A613B190022DA613B1918000BF08A
:1045FC00FBFE031E01D008F029F83B0007221A60CD
:10460C003B0000225A603B0000229A603B000022D3
:10461C00DA603B00002118000CF000FA031E01D0F8
:10462C0008F014F880235B040022190000200CF021
:10463C00FDFAC046BD4613B090BD80B500AF002258
:10464C0002211B2009F0C8FA1B2009F0DAFAC04637
:10465C00BD4680BD80B500AF1B4B1C4A1A601A4B7F
:10466C001B4A5A60184B00229A60174B0122DA60E1
:10467C00154B00221A61144B00225A61124B002276
:10468C009A61114B0022DA610F4B00221A620E4B19
:10469C00180009F0A5FF031E01D007F0D7FF0A4B45
:1046AC00002118000BF0BCFD031E01D007F0CEFF5B
:1046BC00054B002118000BF0FFFD031E01D007F085
:1046CC00C5FFC046BD4680BD2405002000540040F7
:1046DC005B3D300080B500AF1B4B1C4A1A601A4B77
:1046EC001B4A5A60184B00229A60174B0122DA6061
:1046FC00154B00221A61144B00225A61124B0022F6
:10470C009A61114B0022DA610F4B00221A620E4B98
:10471C00180009F065FF031E01D007F097FF0A4B44
:10472C00002118000BF07CFD031E01D007F08EFF5A
:10473C00054B002118000BF0BFFD031E01D007F044
:10474C0085FFC046BD4680BD700500200058004066
:10475C005B3D300080B500AF234B244A1A60224BDE
:10476C00962292015A60204B00229A601E4B002226
:10477C00DA601D4B00221A611B4B0C225A611A4B3A
:10478C0000229A61184B00221A62174B00225A62BF
:10479C00154B00229A62144B00225A66124B1800D9
:1047AC000EF064FB031E01D007F050FF0E4B0021EE
:1047BC00180010F081FE031E01D007F047FF0A4BD2
:1047CC000021180010F0B8FE031E01D007F03EFFC8
:1047DC00054B180010F036FE031E01D007F036FF13
:1047EC00C046BD4680BDC046BC05002000800040D0
:1047FC0080B500AF274B284A1A60264BE1225202A3
:10480C005A60244B00229A60224B0022DA60214B22
:10481C0000221A611F4B0C225A611E4B00229A6116
:10482C001C4B0022DA611B4B00221A62194B00222E
:10483C005A62184B30229A62164B80225201DA636C
:10484C00144B802292011A64124B18000EF00EFBCE
:10485C00031E01D007F0FAFE0E4B0021180010F0D9
:10486C002BFE031E01D007F0F1FE0A4B00211800AD
:10487C0010F062FE031E01D007F0E8FE054B180095
:10488C0010F0E0FD031E01D007F0E0FEC046BD466F
:10489C0080BDC0464C0600200038014080B500AFFA
:1048AC00234B244A1A60224B962292015A60204BC9
:1048BC0000229A601E4B0022DA601D4B00221A6106
:1048CC001B4B0C225A611A4B00229A61184B002286
:1048DC00DA61174B00221A62154B00225A62144BF4
:1048EC0000229A62124B18000EF0C0FA031E01D07F
:1048FC0007F0ACFE0E4B0021180010F0DDFD031E7E
:10490C0001D007F0A3FE0A4B0021180010F014FE92
:10491C00031E01D007F09AFE054B180010F092FD13
:10492C00031E01D007F092FEC046BD4680BDC046B6
:10493C00DC0600200044004080B500AF164B174A3F
:10494C001A60154BE12252025A60134B00229A60F6
:10495C00114B0022DA60104B00221A610E4B0C2214
:10496C005A610D4B00229A610B4B0022DA610A4B03
:10497C0000221A62084B00225A62074B00229A62EC
:10498C00054B18000EF072FA031E01D007F05EFE04
:10499C00C046BD4680BDC0466C07002000480040A4
:1049AC0080B500AF164B174A1A60154B9622920130
:1049BC005A60134B00229A60114B0022DA60104BA4
:1049CC0000221A610E4B0C225A610D4B00229A6187
:1049DC000B4B0022DA610A4B00221A62084B0022B0
:1049EC005A62074B00229A62054B18000EF03EFAF1
:1049FC00031E01D007F02AFEC046BD4680BDC0464E
:104A0C00FC070020004C004080B500AF1B4B1C4A3B
:104A1C001A601A4B822252005A60184B00229A607C
:104A2C00164BE022D200DA60144B00221A61134BB1
:104A3C0000225A61114B802292009A610F4B102276
:104A4C00DA610E4B00221A620C4B00225A620B4B9D
:104A5C0000229A62094B0722DA62084B00221A6381
:104A6C00064B08225A63054B18000CF079FB031E09
:104A7C0001D007F0EBFDC046BD4680BDE808002024
:104A8C000030014080B588B000AF1423FB1818002B
:104A9C000C231A00002113F08FFD3B1D180010236E
:104AAC001A00002113F088FD254B264A1A60244B6E
:104ABC00254A5A60224B00229A60214B234ADA6025
:104ACC001F4B00221A611E4B00225A611C4B002204
:104ADC009A611B4B18000DF057FA031E01D007F01A
:104AEC00B5FD14217B1800221A607B1800225A6035
:104AFC007B1800229A607A18114B110018000EF0E6
:104B0C002FF9031E01D007F0A1FD3B1D00221A60F6
:104B1C003B1D01225A603B1D00229A603B1D002266
:104B2C00DA60391D064B002218000DF0EFFC031E55
:104B3C0001D007F08BFDC046BD4608B080BDC04615
:104B4C004C090020002C01407F3E0000FFFF0000BC
:104B5C0080B588B000AF1423FB1818000C231A0082
:104B6C00002113F029FD3B1D180010231A00002111
:104B7C0013F022FD234B8022D2051A60214B0F2209
:104B8C005A60204B00229A601E4B01225242DA607E
:104B9C001C4B00221A611B4B00229A61194B180006
:104BAC000DF0F2F9031E01D007F050FD14217B1813
:104BBC0000221A607B1800229A607A18114B11009F
:104BCC0018000EF0CDF8031E01D007F03FFD3B1D81
:104BDC0000221A603B1D01225A603B1D00229A6084
:104BEC003B1D0022DA60391D064B002218000DF027
:104BFC008DFC031E01D007F029FDC046BD4608B050
:104C0C0080BDC0469809002080B588B000AF102345
:104C1C00FB18180010231A00002113F0CDFC3B1DCB
:104C2C0018000C231A00002113F0C6FC1E4B1F4A5F
:104C3C001A601D4B1E4A5A601B4B00229A601A4B7D
:104C4C001C4ADA60184B00221A61174B00229A6139
:104C5C00154B18000DF0E4F8031E01D007F0F6FC1C
:104C6C0010217B18802252011A607A180E4B110009
:104C7C0018000DF0EFFC031E01D007F0E7FC3B1D04
:104C8C0000221A603B1D00229A603A1D064B11004F
:104C9C0018000EF065F8031E01D007F0D7FCC046D3
:104CAC00BD4608B080BDC046E409002000040040A9
:104CBC003F1F0000CF07000080B582B000AF0C4B47
:104CCC009A6B0B4B01210A439A63094B9B6B012294
:104CDC0013407B607B6800220121092008F07CFFD7
:104CEC00092008F08EFFC046BD4602B080BDC0460C
:104CFC000010024090B58BB000AF14243B19180083
:104D0C0014231A00002113F057FC644B5A6B634BAD
:104D1C0004210A435A63614B5B6B042213403B61D1
:104D2C003B695E4B5A6B5D4B20210A435A635B4BCC
:104D3C005B6B20221340FB60FB68584B5A6B574B44
:104D4C0001210A435A63554B5B6B01221340BB6034
:104D5C00BB68524B5A6B514B02210A435A634F4B5F
:104D6C005B6B022213407B607B68A023DB05002277
:104D7C001021180009F017FC49494A4B0022180071
:104D8C0009F011FC80235B0046480122190009F050
:104D9C000AFC3B1904221A603B1902225A603B1987
:104DAC0000229A603B190022DA603B1900221A613A
:104DBC003B193D4A1900100009F074FA3B191022F6
:104DCC001A603B1901225A603B1900229A603B1968
:104DDC000022DA603A19A023DB051100180009F053
:104DEC0061FA3B1902221A603B1900225A603B19E6
:104DFC0000229A603B192B4A1900100009F052FA54
:104E0C003B19274A1A603B1901225A603B190022B0
:104E1C009A603B190022DA603B19224A19001000F3
:104E2C0009F040FA3B19802212011A603B1900224A
:104E3C005A603B1900229A603A19A023DB05110035
:104E4C00180009F02FFA21007B18802292001A60BA
:104E5C000C003B1900225A603B1900229A603B1946
:104E6C00124A1900100009F01DFA21007B1880224B
:104E7C0052001A607B1801225A607B1801229A603A
:104E8C007B180022DA607B18064A1900100009F022
:104E9C0009FAC046BD460BB090BDC046001002409A
:104EAC0098E000000004005000140050000800506E
:104EBC0080B500AF04F0B2F9CB49CC481C230E22CC
:104ECC000EF02AF8012008F0A1FDC949C74820239B
:104EDC000C220EF021F8012008F098FDC549C348BA
:104EEC00202307220EF018F8012008F08FFDC2498C
:104EFC00BE480E2307220EF00FF8022008F086FDA4
:104F0C0000F0BEF9BD4B1B78002B06D0BC4B012228
:104F1C001A70BA4B00221A7002E0B94B00221A70B8
:104F2C00B84B0C220021180013F046FBB649AF48D1
:104F3C000E2307220DF0F0FF022008F067FD00F0B1
:104F4C009FF9AE4B1B78002B06D0B04B01221A7088
:104F5C00AA4B00221A7002E0AC4B00221A70A94B2B
:104F6C000C220021180013F027FBA9499F480E239F
:104F7C0007220DF0D1FF022008F048FD00F080F967
:104F8C009E4B1B78002B06D0A24B01221A709B4B18
:104F9C0000221A7002E09F4B00221A70994B0C22CF
:104FAC000021180013F008FB9B4B1A789B4B1A70CE
:104FBC009B498E480E2307220DF0AEFF022008F00D
:104FCC0025FD984B1B78002B15D0964B00221A70A0
:104FDC008C4B1A7A904B1A708F4B1A788F4B1B781C
:104FEC009A4202D0904B01221A70864B0C2200215F
:104FFC00180013F0E1FA874B1B78002B0DD0804B77
:10500C001B78002B09D0894B01221A70884B002287
:10501C001A70884B00221A7022E0794B1B78002BF7
:10502C000DD07A4B1B78002B09D0804B00221A70C4
:10503C007F4B01221A707F4B00221A7010E0734BC9
:10504C001B78002B0CD0734B1B78002B08D0774BA4
:10505C0000221A70764B00221A70764B01221A70BD
:10506C00754B1A68754B1A6080239B00744A1900A3
:10507C00100009F07BFA0300012B0CD1714B0122BB
:10508C001A70714B00221A70704B1B780133DAB214
:10509C006E4B1A7008E06B4B00221A706A4B01229F
:1050AC001A706A4B00221A70644B1B68092B10D9BA
:1050BC00644B1B78002B0CD0654B1B78002B08D055
:1050CC005A4B00221A705A4B00221A70594B01226B
:1050DC001A70564B1B78002B0AD05E4B1B78002B9A
:1050EC0006D15C4B01221A70504B00221A7040E022
:1050FC004F4B1B78002B0AD0564B1B78012B06D13B
:10510C00544B02221A704A4B00221A7031E0484B61
:10511C001B78002B0AD04F4B1B78022B06D14D4B22
:10512C0001221A70424B00221A7022E0414B1B786C
:10513C00002B10D0474B1B78022B0CD1454B002277
:10514C001A703C4B00221A703B4B00221A603B4BEE
:10515C0000221A600DE0374B1B78002B09D03D4B19
:10516C001B78002B05D13B4B02221A70314B0022CD
:10517C001A70384B1B78012B08D100F09BF8364B7A
:10518C001B8801339AB2344B1A8071E0314B1B7877
:10519C00022B08D100F028FB2F4B1B8801339AB24D
:1051AC002D4B1A8064E02B4B1B78002B60D1274BC6
:1051BC001B78002B52D0254B1B78032B51D91E4B3F
:1051CC001A681E4B1B689A424BD11C4B1B68092B4F
:1051DC0047D81E4B00221A70184B00221A60164B2F
:1051EC0000221A603DE0C046980000204C060020CA
:1051FC0048020020540200202C9501086D0A002062
:10520C006F0A0020340A002034950108700A00202F
:10521C003C9501086E0A0020CC330020CD330020D1
:10522C006C950108300A0020CB330020710A002055
:10523C00720A0020730A0020DC0C0020E00C002015
:10524C0000080050CF330020D0330020E80C0020A1
:10525C0085040020660A00204A0E0020064B00221E
:10526C001A6001F075FD054B1B685A1C034B1A6044
:10527C00C046BD4680BDC046DC0C00204C0E002054
:10528C0080B500AF084B1B78002B09D0074B1B7A5D
:10529C00012B02D1064B01221A70034B00221A700B
:1052AC00C046BD4680BDC046300A0020340A0020EE
:1052BC006D0A002080B582B000AFD649D6481023C5
:1052CC0008220DF029FE012008F0A0FBD349D2489A
:1052DC00102308220DF020FE012008F097FBD04986
:1052EC00CD48102308220DF017FE012008F08EFB8C
:1052FC00CC4B00221A60CC4B00221A60CB4B002204
:10530C001A60CB4B00221A60CA4B00221A60CA49A1
:10531C00C148102308220DF0FFFDC849BE480E23DA
:10532C0008220DF0F9FD04F07BFFC54B1B68C54945
:10533C00181CFBF773FD031C181CFDF799FF0022CA
:10534C00C14BFCF7FBF802000B0010001900FDF735
:10535C0001FF03001A00BD4B1A60BC4B1B68BC4A12
:10536C00934202D9B94BBB4A1A60B84B1A68130066
:10537C009B009B185B001A00B74B1A60B64B1B685E
:10538C003A1D1100180002F05BFC391DB34B0A22C8
:10539C00180002F074FC02F0B9F9B14B1B68B1496A
:1053AC00181CFBF73BFD031C181CFCF719F8030039
:1053BC001A00AD4B1A60AC4B1B68A54A934202D93C
:1053CC00A94BA44A1A60A84B1B683A1D110018007F
:1053DC0002F036FC391DA54B0A22180002F04FFCD6
:1053EC0004F066FDA24B1B78012B03D0A14B1B785C
:1053FC00012B22D19E4B00221A709F4B01221A7056
:10540C009C4B00221A709D4B1B78032B0FD013DC86
:10541C00012B02D0022B05D00EE0994B180006F0A0
:10542C0087F80AE0974B180006F082F805E0964BD7
:10543C00180006F07DF800E0C046944B1B78002B5A
:10544C002DD0924B00221A70914B01221A70914B65
:10545C009A7B914B1A708F4BDA7B8F4B5A708D4B1A
:10546C00DA7A8D4BDA708B4B1A7B8B4B1A71894B1A
:10547C001A7A894B9A71874B5A7A874BDA71854B1A
:10548C005A7C854B5A72834B9A7C834B9A72814B14
:10549C001A7D814B1A737F4B5A7D7F4B5A737F4B0E
:1054AC001B78002B00D178E17C4B00221A707C4BCE
:1054BC0001221A7002F0E4FC7A4B01221A7005F0FA
:1054CC007DFB794B1B681800FDF7AEFE0022774B75
:1054DC00FCF798FB02000B00100019000022744B23
:1054EC00FCF7D4FF02000B00100019000022714BD6
:1054FC00FCF788FB02000B0010001900FBF734F8D6
:10550C0002006D4B1A606C4B1B680A211800FAF7ED
:10551C008BFE0B00DBB23033DAB2684BDA71664BC0
:10552C001B680A211800FAF7F9FD03000A2118007C
:10553C00FAF77AFE0B00DBB23033DAB25F4B9A71BA
:10554C005D4B1B6864211800FAF7E8FD03000A2183
:10555C001800FAF769FE0B00DBB23033DAB2574BA6
:10556C005A71554B1B68FA2291001800FAF7D6FDB8
:10557C0003000A211800FAF757FE0B00DBB2303398
:10558C00DAB24E4B1A714C4B1B684D491800FAF7A6
:10559C00C5FD03000A211800FAF746FE0B00DBB22A
:1055AC003033DAB2454BDA70434B1B684449180070
:1055BC00FAF7B4FD03000A211800FAF735FE0B00C8
:1055CC00DBB23033DAB23D4B9A703C4B9B78302BCC
:1055DC0004D13C4B52222021995404E0374B99784A
:1055EC00384B52229954354BDB78302B04D1354B48
:1055FC0053222021995404E0304BD978314B53225B
:10560C0099542E4B1B79302B5ED12E4B54222021DA
:10561C0099545EE0040000204C0600202C00002071
:10562C001C000020440A0020480A00204C0A0020DC
:10563C00580A00201C0D00204400002054000020BB
:10564C000C0D0020000020410000E03F140D002054
:10565C009E8601009F860100180D002014950108FC
:10566C00D40C00200000C842540A00207495010894
:10567C0084040020CB330020CA330020CC3300201C
:10568C00E8030020FC030020100400202902002065
:10569C00140B00207C000020AC0100202B02002009
:1056AC00300B0020480E00204C0E002000004E4015
:1056BC0000408F4000002440400E0020A00E00202F
:1056CC0010270000303300203E4B19793E4B5422FA
:1056DC0099543C4B59793C4B552299543A4B562290
:1056EC002E219954374B9979374B57229954354B76
:1056FC00D979354B58229954334B5922202199543E
:10570C00324B00221A60304B32229A732E4B3022CD
:10571C00DA732F4B1A7A2C4B1A742D4B5A7A2A4B5C
:10572C005A74294B2D229A74294BDA7A264BDA7447
:10573C00274B1A7B244B1A75234B2D225A75244B5D
:10574C009A7B214B9A75224BDA7B1F4BDA751E4BD9
:10575C0020221A761E4B5A7C1B4B5A761C4B9A7C79
:10576C00194B9A76184B3A22DA76194B1A7D164B4E
:10577C001A77174B5A7D144B5A77134B3A229A7758
:10578C00134BDA7D104BDA77114B197E0E4B20221E
:10579C0099540D4B21222021995405F0BDF80D4B45
:1057AC0000221A700C4B01221A700C4B01221A7039
:1057BC000B4B00221A700B4B00221A70C046BD46D0
:1057CC0002B080BDA00E0020303300204C0E002013
:1057DC007C00002085040020160B00202A020020EB
:1057EC00170B0020E80C002090B5A1B000AFC54904
:1057FC00C548102308220DF08FFB012008F006F994
:10580C00C249C148102308220DF086FB012008F084
:10581C00FDF8BF49BC48102308220DF07DFB012088
:10582C0008F0F4F804F0FCFCBA4B1B68BA49181CDD
:10583C00FBF7F4FA031C181CFDF71AFD0022B74BFA
:10584C00FBF77CFE02000B0010001900FDF782FC38
:10585C0003001A00B24B1A60B14B1B68B14A934259
:10586C0002D9AF4BB04A1A60AD4B1A6813009B00BB
:10587C009B185B001A00AD4B1A60AC4B1B6878226E
:10588C00BA181100180002F0DBF9A94B1B68A949E2
:10589C00181CFBF7C3FA031C181CFBF7A1FD030033
:1058AC001A00A54B1A60A44B1B689E4A934202D95E
:1058BC00A14B9D4A1A60A04B1B6878243A19110021
:1058CC00180002F0BDF939199C4B0A22180002F09D
:1058DC00D6F904F0EDFA9A4B1B78002B2DD0984B8F
:1058EC0000221A70974B01221A70974B9A7B974B98
:1058FC001A70954BDA7B954B5A70934BDA7A934B23
:10590C00DA70914B1A7B914B1A718F4B1A7A8F4B21
:10591C009A718D4B5A7A8D4BDA718B4B5A7C8B4B1F
:10592C005A72894B9A7C894B9A72874B1A7D874B9A
:10593C001A73854B5A7D854B5A73854B1B78002BFC
:10594C002AD0834B00221A707F4B9A7B814B1A70A2
:10595C007D4BDA7B7F4B5A707B4BDA7A7D4BDA705E
:10596C00794B1A7B7B4B1A71774B1A7A794B9A715C
:10597C00754B5A7A774BDA71734B5A7C754B5A725A
:10598C00714B9A7C734B9A726F4B1A7D714B1A73D5
:10599C006D4B5A7D6F4B5A736F4B1B78002B01D19B
:1059AC0001F0B4FE6D4B1B78002B1AD05C4B1A68BF
:1059BC006B4B1B68D2186B4B1A606A4B1A6813003E
:1059CC009B009B185B001A00674B1A60664B1B68A8
:1059DC006022BA181100180002F032F95F4B002255
:1059EC001A70624B1B78002B1AD04D4B1A685C4B0B
:1059FC001B68D2185B4B1A605A4B1A6813009B0039
:105A0C009B185B001A00584B1A60574B1B685C22A2
:105A1C00BA181100180002F013F9544B00221A7036
:105A2C00534939480E2307220DF076FA022007F06D
:105A3C00EDFF504B1B78002B2BD04E4B00221A70D5
:105A4C004D4B1B7A012B10D1434B1B78012B0CD1E6
:105A5C004A4B00221A70404B00221A7048492A48BF
:105A6C000E2308220DF058FA16E0434B1B7A012B3B
:105A7C0012D1424B1B780133DAB2404B1A70364BC1
:105A8C0001221A703E4920480E2308220DF044FAD8
:105A9C0002E0314B00221A702F4B1B78002B75D073
:105AAC000023FB67304B1B6878243A19110018004F
:105ABC0002F0C6F83919334B0A22180002F0DFF84D
:105ACC003A19FB6F1100180002F0BAF839192E4B75
